;;; Segment .text (0000000140001000)
0000000140001000 48 81 EC C8 00 00 00 48 8B 05 F2 1F 00 00 48 33 H......H......H3
0000000140001010 C4 48 89 84 24 B8 00 00 00 0F 28 05 40 12 00 00 .H..$.....(.@...
0000000140001020 4C 8D 0D 19 12 00 00 C7 44 24 38 57 00 00 00 4C L.......D$8W...L
0000000140001030 8D 05 1A 12 00 00 C7 44 24 30 63 00 00 00 48 8D .......D$0c...H.
0000000140001040 0D CB 11 00 00 BA 03 00 00 00 0F 11 44 24 20 E8 ............D$ .
0000000140001050 EC 00 00 00 48 8D 44 24 44 48 89 44 24 38 4C 8D ....H.D$DH.D$8L.
0000000140001060 4C 24 78 48 8D 44 24 40 48 89 44 24 30 4C 8D 44 L$xH.D$@H.D$0L.D
0000000140001070 24 58 48 8D 44 24 50 48 89 44 24 28 48 8D 54 24 $XH.D$PH.D$(H.T$
0000000140001080 4C 48 8D 44 24 48 48 8D 0D 9B 11 00 00 48 89 44 LH.D$HH......H.D
0000000140001090 24 20 E8 39 00 00 00 33 C0 48 8B 8C 24 B8 00 00 $ .9...3.H..$...
00000001400010A0 00 48 33 CC E8 07 01 00 00 48 81 C4 C8 00 00 00 .H3......H......
00000001400010B0 C3 CC CC CC CC CC CC CC CC CC CC CC CC CC CC CC ................
00000001400010C0 48 8D 05 61 25 00 00 C3 CC CC CC CC CC CC CC CC H..a%...........
00000001400010D0 48 89 4C 24 08 48 89 54 24 10 4C 89 44 24 18 4C H.L$.H.T$.L.D$.L
00000001400010E0 89 4C 24 20 53 56 57 48 83 EC 30 48 8B F9 48 8D .L$ SVWH..0H..H.
00000001400010F0 74 24 58 33 C9 FF 15 7D 10 00 00 48 8B D8 E8 BD t$X3...}...H....
0000000140001100 FF FF FF 45 33 C9 48 89 74 24 20 4C 8B C7 48 8B ...E3.H.t$ L..H.
0000000140001110 D3 48 8B 08 FF 15 4E 10 00 00 48 83 C4 30 5F 5E .H....N...H..0_^
0000000140001120 5B C3 CC CC CC CC CC CC CC CC CC CC CC CC CC CC [...............
0000000140001130 48 8D 05 E9 24 00 00 C3 CC CC CC CC CC CC CC CC H...$...........
0000000140001140 48 89 4C 24 08 48 89 54 24 10 4C 89 44 24 18 4C H.L$.H.T$.L.D$.L
0000000140001150 89 4C 24 20 53 56 57 48 83 EC 30 48 8B F9 48 8D .L$ SVWH..0H..H.
0000000140001160 74 24 58 B9 01 00 00 00 FF 15 0A 10 00 00 48 8B t$X...........H.
0000000140001170 D8 E8 BA FF FF FF 45 33 C9 48 89 74 24 20 4C 8B ......E3.H.t$ L.
0000000140001180 C7 48 8B D3 48 8B 08 FF 15 E3 0F 00 00 48 83 C4 .H..H........H..
0000000140001190 30 5F 5E 5B C3 CC CC CC CC CC CC CC CC CC CC CC 0_^[............
00000001400011A0 CC CC CC CC CC CC 66 66 0F 1F 84 00 00 00 00 00 ......ff........
00000001400011B0 48 3B 0D 49 1E 00 00 F2 75 12 48 C1 C1 10 66 F7 H;.I....u.H...f.
00000001400011C0 C1 FF FF F2 75 02 F2 C3 48 C1 C9 10 E9 AB 02 00 ....u...H.......
00000001400011D0 00 CC CC CC                                     ....           
00000001400011D4             40 53 48 83 EC 20 B9 01 00 00 00 E8     @SH.. ......
00000001400011E0 0E 0C 00 00 E8 37 07 00 00 8B C8 E8 38 0C 00 00 .....7......8...
00000001400011F0 E8 63 0C 00 00 48 8B D8 E8 BF 08 00 00 B9 01 00 .c...H..........
0000000140001200 00 00 89 03 E8 43 04 00 00 84 C0 74 6C E8 4A 09 .....C.....tl.J.
0000000140001210 00 00 48 8D 0D 8F 09 00 00 E8 36 06 00 00 E8 F5 ..H.......6.....
0000000140001220 06 00 00 8B C8 E8 D4 0B 00 00 85 C0 75 56 E8 F5 ............uV..
0000000140001230 06 00 00 E8 20 07 00 00 85 C0 74 0C 48 8D 0D 79 .... .....t.H..y
0000000140001240 08 00 00 E8 B0 0B 00 00 E8 83 0B 00 00 E8 7E 0B ..............~.
0000000140001250 00 00 E8 65 08 00 00 8B C8 E8 EE 0B 00 00 E8 D5 ...e............
0000000140001260 06 00 00 84 C0 74 05 E8 98 0B 00 00 E8 4B 08 00 .....t.......K..
0000000140001270 00 33 C0 48 83 C4 20 5B C3 B9 07 00 00 00 E8 F1 .3.H.. [........
0000000140001280 06 00 00 CC B9 07 00 00 00 E8 E6 06 00 00 CC CC ................
0000000140001290 48 83 EC 28 E8 A3 06 00 00 33 C0 48 83 C4 28 C3 H..(.....3.H..(.
00000001400012A0 48 83 EC 28 E8 6B 08 00 00 E8 0E 08 00 00 8B C8 H..(.k..........
00000001400012B0 48 83 C4 28 E9 99 0B 00 00 CC CC CC             H..(........   
00000001400012BC                                     48 89 5C 24             H.\$
00000001400012C0 08 48 89 74 24 10 57 48 83 EC 30 B9 01 00 00 00 .H.t$.WH..0.....
00000001400012D0 E8 2B 03 00 00 84 C0 75 0B B9 07 00 00 00 E8 91 .+.....u........
00000001400012E0 06 00 00 CC 40 32 F6 40 88 74 24 20 E8 D3 02 00 ....@2.@.t$ ....
00000001400012F0 00 8A D8 8B 0D B7 22 00 00 83 F9 01 75 0A B9 07 ......".....u...
0000000140001300 00 00 00 E8 6C 06 00 00 85 C9 75 4A C7 05 9A 22 ....l.....uJ..."
0000000140001310 00 00 01 00 00 00 48 8D 15 B3 0E 00 00 48 8D 0D ......H......H..
0000000140001320 94 0E 00 00 E8 ED 0A 00 00 85 C0 74 0A B8 FF 00 ...........t....
0000000140001330 00 00 E9 EC 00 00 00 48 8D 15 72 0E 00 00 48 8D .......H..r...H.
0000000140001340 0D 5B 0E 00 00 E8 C6 0A 00 00 C7 05 5C 22 00 00 .[..........\"..
0000000140001350 02 00 00 00 EB 08 40 B6 01 40 88 74 24 20 8A CB ......@..@.t$ ..
0000000140001360 E8 4F 04 00 00 E8 FA 05 00 00 48 8B D8 48 83 38 .O........H..H.8
0000000140001370 00 74 22 48 8B C8 E8 9D 03 00 00 84 C0 74 16 48 .t"H.........t.H
0000000140001380 8B 1B 48 8B CB E8 6A 08 00 00 45 33 C0 41 8D 50 ..H...j...E3.A.P
0000000140001390 02 33 C9 FF D3 E8 D2 05 00 00 48 8B D8 48 83 38 .3........H..H.8
00000001400013A0 00 74 14 48 8B C8 E8 6D 03 00 00 84 C0 74 08 48 .t.H...m.....t.H
00000001400013B0 8B 0B E8 8F 0A 00 00 E8 78 0A 00 00 48 8B F8 E8 ........x...H...
00000001400013C0 6A 0A 00 00 48 8B D8 E8 3E 0A 00 00 4C 8B C0 48 j...H...>...L..H
00000001400013D0 8B 17 8B 0B E8 27 FC FF FF 8B D8 E8 E0 06 00 00 .....'..........
00000001400013E0 84 C0 75 07 8B CB E8 31 0A 00 00 40 84 F6 75 05 ..u....1...@..u.
00000001400013F0 E8 45 0A 00 00 33 D2 B1 01 E8 DA 03 00 00 8B C3 .E...3..........
0000000140001400 EB 21 8B D8 E8 B7 06 00 00 84 C0 75 08 8B CB E8 .!.........u....
0000000140001410 0E 0A 00 00 CC 80 7C 24 20 00 75 05 E8 1F 0A 00 ......|$ .u.....
0000000140001420 00 8B C3 48 8B 5C 24 40 48 8B 74 24 48 48 83 C4 ...H.\$@H.t$HH..
0000000140001430 30 5F C3 CC                                     0_..           
0000000140001434             48 83 EC 28 E8 2F 04 00 00 48 83 C4     H..(./...H..
0000000140001440 28 E9 76 FE FF FF CC CC                         (.v.....       
0000000140001448                         40 53 48 83 EC 20 48 8B         @SH.. H.
0000000140001450 D9 33 C9 FF 15 0F 0C 00 00 48 8B CB FF 15 AE 0B .3.......H......
0000000140001460 00 00 FF 15 F8 0B 00 00 48 8B C8 BA 09 04 00 C0 ........H.......
0000000140001470 48 83 C4 20 5B 48 FF 25 DC 0B 00 00             H.. [H.%....   
000000014000147C                                     48 89 4C 24             H.L$
0000000140001480 08 48 83 EC 38 B9 17 00 00 00 E8 E7 09 00 00 85 .H..8...........
0000000140001490 C0 74 07 B9 02 00 00 00 CD 29 48 8D 0D 3F 1C 00 .t.......)H..?..
00000001400014A0 00 E8 AA 00 00 00 48 8B 44 24 38 48 89 05 26 1D ......H.D$8H..&.
00000001400014B0 00 00 48 8D 44 24 38 48 83 C0 08 48 89 05 B6 1C ..H.D$8H...H....
00000001400014C0 00 00 48 8B 05 0F 1D 00 00 48 89 05 80 1B 00 00 ..H......H......
00000001400014D0 48 8B 44 24 40 48 89 05 84 1C 00 00 C7 05 5A 1B H.D$@H........Z.
00000001400014E0 00 00 09 04 00 C0 C7 05 54 1B 00 00 01 00 00 00 ........T.......
00000001400014F0 C7 05 5E 1B 00 00 01 00 00 00 B8 08 00 00 00 48 ..^............H
0000000140001500 6B C0 00 48 8D 0D 56 1B 00 00 48 C7 04 01 02 00 k..H..V...H.....
0000000140001510 00 00 B8 08 00 00 00 48 6B C0 00 48 8B 0D DE 1A .......Hk..H....
0000000140001520 00 00 48 89 4C 04 20 B8 08 00 00 00 48 6B C0 01 ..H.L. .....Hk..
0000000140001530 48 8B 0D D1 1A 00 00 48 89 4C 04 20 48 8D 0D BD H......H.L. H...
0000000140001540 0C 00 00 E8 00 FF FF FF 48 83 C4 38 C3 CC CC CC ........H..8....
0000000140001550 40 53 56 57 48 83 EC 40 48 8B D9 FF 15 0F 0B 00 @SVWH..@H.......
0000000140001560 00 48 8B B3 F8 00 00 00 33 FF 45 33 C0 48 8D 54 .H......3.E3.H.T
0000000140001570 24 60 48 8B CE FF 15 85 0A 00 00 48 85 C0 74 39 $`H........H..t9
0000000140001580 48 83 64 24 38 00 48 8D 4C 24 68 48 8B 54 24 60 H.d$8.H.L$hH.T$`
0000000140001590 4C 8B C8 48 89 4C 24 30 4C 8B C6 48 8D 4C 24 70 L..H.L$0L..H.L$p
00000001400015A0 48 89 4C 24 28 33 C9 48 89 5C 24 20 FF 15 56 0A H.L$(3.H.\$ ..V.
00000001400015B0 00 00 FF C7 83 FF 02 7C B1 48 83 C4 40 5F 5E 5B .......|.H..@_^[
00000001400015C0 C3 CC CC CC                                     ....           
00000001400015C4             48 83 EC 28 E8 F7 07 00 00 85 C0 74     H..(.......t
00000001400015D0 21 65 48 8B 04 25 30 00 00 00 48 8B 48 08 EB 05 !eH..%0...H.H...
00000001400015E0 48 3B C8 74 14 33 C0 F0 48 0F B1 0D C8 1F 00 00 H;.t.3..H.......
00000001400015F0 75 EE 32 C0 48 83 C4 28 C3 B0 01 EB F7 CC CC CC u.2.H..(........
0000000140001600 40 53 48 83 EC 20 0F B6 05 E3 1F 00 00 85 C9 BB @SH.. ..........
0000000140001610 01 00 00 00 0F 44 C3 88 05 D3 1F 00 00 E8 DA 05 .....D..........
0000000140001620 00 00 E8 11 03 00 00 84 C0 75 04 32 C0 EB 14 E8 .........u.2....
0000000140001630 04 03 00 00 84 C0 75 09 33 C9 E8 F9 02 00 00 EB ......u.3.......
0000000140001640 EA 8A C3 48 83 C4 20 5B C3 CC CC CC             ...H.. [....   
000000014000164C                                     48 89 5C 24             H.\$
0000000140001650 08 55 48 8B EC 48 83 EC 40 8B D9 83 F9 01 0F 87 .UH..H..@.......
0000000140001660 A6 00 00 00 E8 5B 07 00 00 85 C0 74 2B 85 DB 75 .....[.....t+..u
0000000140001670 27 48 8D 0D 48 1F 00 00 E8 E1 07 00 00 85 C0 74 'H..H..........t
0000000140001680 04 32 C0 EB 7A 48 8D 0D 4C 1F 00 00 E8 CD 07 00 .2..zH..L.......
0000000140001690 00 85 C0 0F 94 C0 EB 67 48 8B 15 61 19 00 00 49 .......gH..a...I
00000001400016A0 83 C8 FF 8B C2 B9 40 00 00 00 83 E0 3F 2B C8 B0 ......@.....?+..
00000001400016B0 01 49 D3 C8 4C 33 C2 4C 89 45 E0 4C 89 45 E8 0F .I..L3.L.E.L.E..
00000001400016C0 10 45 E0 4C 89 45 F0 F2 0F 10 4D F0 0F 11 05 ED .E.L.E....M.....
00000001400016D0 1E 00 00 4C 89 45 E0 4C 89 45 E8 0F 10 45 E0 4C ...L.E.L.E...E.L
00000001400016E0 89 45 F0 F2 0F 11 0D E5 1E 00 00 F2 0F 10 4D F0 .E............M.
00000001400016F0 0F 11 05 E1 1E 00 00 F2 0F 11 0D E9 1E 00 00 48 ...............H
0000000140001700 8B 5C 24 50 48 83 C4 40 5D C3 B9 05 00 00 00 E8 .\$PH..@].......
0000000140001710 60 02 00 00 CC CC CC CC                         `.......       
0000000140001718                         48 83 EC 18 4C 8B C1 B8         H...L...
0000000140001720 4D 5A 00 00 66 39 05 D5 E8 FF FF 75 79 48 63 05 MZ..f9.....uyHc.
0000000140001730 08 E9 FF FF 48 8D 15 C5 E8 FF FF 48 8D 0C 10 81 ....H......H....
0000000140001740 39 50 45 00 00 75 5F B8 0B 02 00 00 66 39 41 18 9PE..u_.....f9A.
0000000140001750 75 54 4C 2B C2 0F B7 41 14 48 8D 51 18 48 03 D0 uTL+...A.H.Q.H..
0000000140001760 0F B7 41 06 48 8D 0C 80 4C 8D 0C CA 48 89 14 24 ..A.H...L...H..$
0000000140001770 49 3B D1 74 18 8B 4A 0C 4C 3B C1 72 0A 8B 42 08 I;.t..J.L;.r..B.
0000000140001780 03 C1 4C 3B C0 72 08 48 83 C2 28 EB DF 33 D2 48 ..L;.r.H..(..3.H
0000000140001790 85 D2 75 04 32 C0 EB 14 83 7A 24 00 7D 04 32 C0 ..u.2....z$.}.2.
00000001400017A0 EB 0A B0 01 EB 06 32 C0 EB 02 32 C0 48 83 C4 18 ......2...2.H...
00000001400017B0 C3 CC CC CC                                     ....           
00000001400017B4             40 53 48 83 EC 20 8A D9 E8 03 06 00     @SH.. ......
00000001400017C0 00 33 D2 85 C0 74 0B 84 DB 75 07 48 87 15 E6 1D .3...t...u.H....
00000001400017D0 00 00 48 83 C4 20 5B C3                         ..H.. [.       
00000001400017D8                         40 53 48 83 EC 20 80 3D         @SH.. .=
00000001400017E0 0B 1E 00 00 00 8A D9 74 04 84 D2 75 0E 8A CB E8 .......t...u....
00000001400017F0 44 01 00 00 8A CB E8 3D 01 00 00 B0 01 48 83 C4 D......=.....H..
0000000140001800 20 5B C3 CC                                      [..           
0000000140001804             40 53 48 83 EC 20 48 8B 15 EF 17 00     @SH.. H.....
0000000140001810 00 48 8B D9 8B CA 48 33 15 A3 1D 00 00 83 E1 3F .H....H3.......?
0000000140001820 48 D3 CA 48 83 FA FF 75 0A 48 8B CB E8 39 06 00 H..H...u.H...9..
0000000140001830 00 EB 0F 48 8B D3 48 8D 0D 83 1D 00 00 E8 22 06 ...H..H.......".
0000000140001840 00 00 33 C9 85 C0 48 0F 44 CB 48 8B C1 48 83 C4 ..3...H.D.H..H..
0000000140001850 20 5B C3 CC                                      [..           
0000000140001854             48 83 EC 28 E8 A7 FF FF FF 48 F7 D8     H..(.....H..
0000000140001860 1B C0 F7 D8 FF C8 48 83 C4 28 C3 CC             ......H..(..   
000000014000186C                                     48 89 5C 24             H.\$
0000000140001870 20 55 48 8B EC 48 83 EC 20 48 83 65 18 00 48 BB  UH..H.. H.e..H.
0000000140001880 32 A2 DF 2D 99 2B 00 00 48 8B 05 71 17 00 00 48 2..-.+..H..q...H
0000000140001890 3B C3 75 6F 48 8D 4D 18 FF 15 92 07 00 00 48 8B ;.uoH.M.......H.
00000001400018A0 45 18 48 89 45 10 FF 15 8C 07 00 00 8B C0 48 31 E.H.E.........H1
00000001400018B0 45 10 FF 15 88 07 00 00 8B C0 48 8D 4D 20 48 31 E.........H.M H1
00000001400018C0 45 10 FF 15 80 07 00 00 8B 45 20 48 8D 4D 10 48 E........E H.M.H
00000001400018D0 C1 E0 20 48 33 45 20 48 33 45 10 48 33 C1 48 B9 .. H3E H3E.H3.H.
00000001400018E0 FF FF FF FF FF FF 00 00 48 23 C1 48 B9 33 A2 DF ........H#.H.3..
00000001400018F0 2D 99 2B 00 00 48 3B C3 48 0F 44 C1 48 89 05 FD -.+..H;.H.D.H...
0000000140001900 16 00 00 48 8B 5C 24 48 48 F7 D0 48 89 05 F6 16 ...H.\$HH..H....
0000000140001910 00 00 48 83 C4 20 5D C3 B8 01 00 00 00 C3 CC CC ..H.. ].........
0000000140001920 B8 00 40 00 00 C3 CC CC 48 8D 0D D1 1C 00 00 48 ..@.....H......H
0000000140001930 FF 25 F2 06 00 00 CC CC B0 01 C3 CC             .%..........   
000000014000193C                                     48 83 EC 28             H..(
0000000140001940 E8 EB F7 FF FF 48 83 08 04 E8 72 F7 FF FF 48 83 .....H....r...H.
0000000140001950 08 02 48 83 C4 28 C3 CC 33 C0 39 05 B4 16 00 00 ..H..(..3.9.....
0000000140001960 0F 94 C0 C3 48 8D 05 CD 1C 00 00 C3 48 8D 05 BD ....H.......H...
0000000140001970 1C 00 00 C3                                     ....           
0000000140001974             48 89 5C 24 08 55 48 8D AC 24 40 FB     H.\$.UH..$@.
0000000140001980 FF FF 48 81 EC C0 05 00 00 8B D9 B9 17 00 00 00 ..H.............
0000000140001990 E8 E1 04 00 00 85 C0 74 04 8B CB CD 29 83 25 6C .......t....).%l
00000001400019A0 1C 00 00 00 48 8D 4D F0 33 D2 41 B8 D0 04 00 00 ....H.M.3.A.....
00000001400019B0 E8 31 04 00 00 48 8D 4D F0 FF 15 B1 06 00 00 48 .1...H.M.......H
00000001400019C0 8B 9D E8 00 00 00 48 8D 95 D8 04 00 00 48 8B CB ......H......H..
00000001400019D0 45 33 C0 FF 15 27 06 00 00 48 85 C0 74 3C 48 83 E3...'...H..t<H.
00000001400019E0 64 24 38 00 48 8D 8D E0 04 00 00 48 8B 95 D8 04 d$8.H......H....
00000001400019F0 00 00 4C 8B C8 48 89 4C 24 30 4C 8B C3 48 8D 8D ..L..H.L$0L..H..
0000000140001A00 E8 04 00 00 48 89 4C 24 28 48 8D 4D F0 48 89 4C ....H.L$(H.M.H.L
0000000140001A10 24 20 33 C9 FF 15 EE 05 00 00 48 8B 85 C8 04 00 $ 3.......H.....
0000000140001A20 00 48 8D 4C 24 50 48 89 85 E8 00 00 00 33 D2 48 .H.L$PH......3.H
0000000140001A30 8D 85 C8 04 00 00 41 B8 98 00 00 00 48 83 C0 08 ......A.....H...
0000000140001A40 48 89 85 88 00 00 00 E8 9A 03 00 00 48 8B 85 C8 H...........H...
0000000140001A50 04 00 00 48 89 44 24 60 C7 44 24 50 15 00 00 40 ...H.D$`.D$P...@
0000000140001A60 C7 44 24 54 01 00 00 00 FF 15 B2 05 00 00 83 F8 .D$T............
0000000140001A70 01 48 8D 44 24 50 48 89 44 24 40 48 8D 45 F0 0F .H.D$PH.D$@H.E..
0000000140001A80 94 C3 48 89 44 24 48 33 C9 FF 15 D9 05 00 00 48 ..H.D$H3.......H
0000000140001A90 8D 4C 24 40 FF 15 76 05 00 00 85 C0 75 0A F6 DB .L$@..v.....u...
0000000140001AA0 1B C0 21 05 68 1B 00 00 48 8B 9C 24 D0 05 00 00 ..!.h...H..$....
0000000140001AB0 48 81 C4 C0 05 00 00 5D C3 CC CC CC 33 C0 C3 CC H......]....3...
0000000140001AC0 48 83 EC 28 33 C9 FF 15 4C 05 00 00 48 8B C8 48 H..(3...L...H..H
0000000140001AD0 85 C0 75 04 32 C0 EB 37 B8 4D 5A 00 00 66 39 01 ..u.2..7.MZ..f9.
0000000140001AE0 75 F2 48 63 41 3C 48 03 C1 81 38 50 45 00 00 75 u.HcA<H...8PE..u
0000000140001AF0 E3 B9 0B 02 00 00 66 39 48 18 75 D8 83 B8 84 00 ......f9H.u.....
0000000140001B00 00 00 0E 76 CF 83 B8 F8 00 00 00 00 0F 95 C0 48 ...v...........H
0000000140001B10 83 C4 28 C3 48 8D 0D 09 00 00 00 48 FF 25 46 05 ..(.H......H.%F.
0000000140001B20 00 00 CC CC                                     ....           
0000000140001B24             48 83 EC 28 48 8B 01 81 38 63 73 6D     H..(H...8csm
0000000140001B30 E0 75 1C 83 78 18 04 75 16 8B 48 20 8D 81 E0 FA .u..x..u..H ....
0000000140001B40 6C E6 83 F8 02 76 0F 81 F9 00 40 99 01 74 07 33 l....v....@..t.3
0000000140001B50 C0 48 83 C4 28 C3 E8 15 03 00 00 CC             .H..(.......   
0000000140001B5C                                     48 89 5C 24             H.\$
0000000140001B60 08 48 89 74 24 10 57 48 83 EC 20 48 8D 1D 0E 0B .H.t$.WH.. H....
0000000140001B70 00 00 48 8D 35 07 0B 00 00 EB 16 48 8B 3B 48 85 ..H.5......H.;H.
0000000140001B80 FF 74 0A 48 8B CF E8 69 00 00 00 FF D7 48 83 C3 .t.H...i.....H..
0000000140001B90 08 48 3B DE 72 E5 48 8B 5C 24 30 48 8B 74 24 38 .H;.r.H.\$0H.t$8
0000000140001BA0 48 83 C4 20 5F C3 CC CC                         H.. _...       
0000000140001BA8                         48 89 5C 24 08 48 89 74         H.\$.H.t
0000000140001BB0 24 10 57 48 83 EC 20 48 8D 1D D2 0A 00 00 48 8D $.WH.. H......H.
0000000140001BC0 35 CB 0A 00 00 EB 16 48 8B 3B 48 85 FF 74 0A 48 5......H.;H..t.H
0000000140001BD0 8B CF E8 1D 00 00 00 FF D7 48 83 C3 08 48 3B DE .........H...H;.
0000000140001BE0 72 E5 48 8B 5C 24 30 48 8B 74 24 38 48 83 C4 20 r.H.\$0H.t$8H.. 
0000000140001BF0 5F C3 CC CC 48 FF 25 95 05 00 00 CC             _...H.%.....   
0000000140001BFC                                     48 89 5C 24             H.\$
0000000140001C00 10 48 89 7C 24 18 55 48 8B EC 48 83 EC 20 83 65 .H.|$.UH..H.. .e
0000000140001C10 E8 00 33 C9 33 C0 C7 05 FC 13 00 00 02 00 00 00 ..3.3...........
0000000140001C20 0F A2 44 8B C1 C7 05 E9 13 00 00 01 00 00 00 81 ..D.............
0000000140001C30 F1 63 41 4D 44 44 8B CA 44 8B D2 41 81 F1 65 6E .cAMDD..D..A..en
0000000140001C40 74 69 41 81 F2 69 6E 65 49 41 81 F0 6E 74 65 6C tiA..ineIA..ntel
0000000140001C50 45 0B D0 44 8B DB 44 8B 05 B7 19 00 00 41 81 F3 E..D..D......A..
0000000140001C60 41 75 74 68 45 0B D9 8B D3 44 0B D9 81 F2 47 65 AuthE....D....Ge
0000000140001C70 6E 75 33 C9 8B F8 44 0B D2 B8 01 00 00 00 0F A2 nu3...D.........
0000000140001C80 89 45 F0 44 8B C9 44 89 4D F8 8B C8 89 5D F4 89 .E.D..D.M....]..
0000000140001C90 55 FC 45 85 D2 75 52 48 83 0D 81 13 00 00 FF 41 U.E..uRH.......A
0000000140001CA0 83 C8 04 25 F0 3F FF 0F 44 89 05 65 19 00 00 3D ...%.?..D..e...=
0000000140001CB0 C0 06 01 00 74 28 3D 60 06 02 00 74 21 3D 70 06 ....t(=`...t!=p.
0000000140001CC0 02 00 74 1A 05 B0 F9 FC FF 83 F8 20 77 1B 48 BB ..t........ w.H.
0000000140001CD0 01 00 01 00 01 00 00 00 48 0F A3 C3 73 0B 41 83 ........H...s.A.
0000000140001CE0 C8 01 44 89 05 2B 19 00 00 45 85 DB 75 19 81 E1 ..D..+...E..u...
0000000140001CF0 00 0F F0 0F 81 F9 00 0F 60 00 72 0B 41 83 C8 04 ........`.r.A...
0000000140001D00 44 89 05 0D 19 00 00 B8 07 00 00 00 89 55 E0 44 D............U.D
0000000140001D10 89 4D E4 3B F8 7C 24 33 C9 0F A2 89 45 F0 89 5D .M.;.|$3....E..]
0000000140001D20 F4 89 4D F8 89 55 FC 89 5D E8 0F BA E3 09 73 0B ..M..U..].....s.
0000000140001D30 41 83 C8 02 44 89 05 D9 18 00 00 41 0F BA E1 14 A...D......A....
0000000140001D40 73 6E C7 05 CC 12 00 00 02 00 00 00 C7 05 C6 12 sn..............
0000000140001D50 00 00 06 00 00 00 41 0F BA E1 1B 73 53 41 0F BA ......A....sSA..
0000000140001D60 E1 1C 73 4C 33 C9 0F 01 D0 48 C1 E2 20 48 0B D0 ..sL3....H.. H..
0000000140001D70 48 89 55 10 48 8B 45 10 24 06 3C 06 75 32 8B 05 H.U.H.E.$.<.u2..
0000000140001D80 98 12 00 00 83 C8 08 C7 05 87 12 00 00 03 00 00 ................
0000000140001D90 00 F6 45 E8 20 89 05 81 12 00 00 74 13 83 C8 20 ..E. ......t... 
0000000140001DA0 C7 05 6E 12 00 00 05 00 00 00 89 05 6C 12 00 00 ..n.........l...
0000000140001DB0 48 8B 5C 24 38 33 C0 48 8B 7C 24 40 48 83 C4 20 H.\$83.H.|$@H.. 
0000000140001DC0 5D C3 CC CC 33 C0 39 05 64 12 00 00 0F 95 C0 C3 ]...3.9.d.......
0000000140001DD0 C2 00 00 CC CC CC CC CC CC CC CC CC CC CC CC CC ................
0000000140001DE0 FF 25 A2 02 00 00 FF 25 94 02 00 00 FF 25 FE 02 .%.....%.....%..
0000000140001DF0 00 00 FF 25 F0 02 00 00 FF 25 BA 02 00 00 FF 25 ...%.....%.....%
0000000140001E00 44 03 00 00 FF 25 36 03 00 00 FF 25 28 03 00 00 D....%6....%(...
0000000140001E10 FF 25 1A 03 00 00 FF 25 0C 03 00 00 FF 25 FE 02 .%.....%.....%..
0000000140001E20 00 00 FF 25 F0 02 00 00 FF 25 52 03 00 00 FF 25 ...%.....%R....%
0000000140001E30 D4 02 00 00 FF 25 C6 02 00 00 FF 25 88 02 00 00 .....%.....%....
0000000140001E40 FF 25 CA 02 00 00 FF 25 AC 02 00 00 FF 25 56 02 .%.....%.....%V.
0000000140001E50 00 00 FF 25 40 02 00 00 FF 25 02 03 00 00 FF 25 ...%@....%.....%
0000000140001E60 EC 02 00 00 FF 25 66 02 00 00 FF 25 68 02 00 00 .....%f....%h...
0000000140001E70 FF 25 6A 02 00 00 FF 25 D4 01 00 00             .%j....%....   
0000000140001E7C                                     48 83 EC 28             H..(
0000000140001E80 4D 8B 41 38 48 8B CA 49 8B D1 E8 0D 00 00 00 B8 M.A8H..I........
0000000140001E90 01 00 00 00 48 83 C4 28 C3 CC CC CC             ....H..(....   
0000000140001E9C                                     40 53 45 8B             @SE.
0000000140001EA0 18 48 8B DA 41 83 E3 F8 4C 8B C9 41 F6 00 04 4C .H..A...L..A...L
0000000140001EB0 8B D1 74 13 41 8B 40 08 4D 63 50 04 F7 D8 4C 03 ..t.A.@.McP...L.
0000000140001EC0 D1 48 63 C8 4C 23 D1 49 63 C3 4A 8B 14 10 48 8B .Hc.L#.Ic.J...H.
0000000140001ED0 43 10 8B 48 08 48 03 4B 08 F6 41 03 0F 74 0A 0F C..H.H.K..A..t..
0000000140001EE0 B6 41 03 83 E0 F0 4C 03 C8 4C 33 CA 49 8B C9 5B .A....L..L3.I..[
0000000140001EF0 E9 BB F2 FF FF CC CC CC CC CC CC CC CC CC CC CC ................
0000000140001F00 CC CC CC CC CC CC 66 66 0F 1F 84 00 00 00 00 00 ......ff........
0000000140001F10 FF E0                                           ..             
0000000140001F12       40 55 48 83 EC 20 48 8B EA 48 8B 01 48 8B   @UH.. H..H..H.
0000000140001F20 D1 8B 08 E8 C4 FE FF FF 90 48 83 C4 20 5D C3 CC .........H.. ]..
0000000140001F30 40 55 48 8B EA 48 8B 01 33 C9 81 38 05 00 00 C0 @UH..H..3..8....
0000000140001F40 0F 94 C1 8B C1 5D C3 CC                         .....]..       
;;; Segment .rdata (0000000140002000)
l0000000140002000	dq	0x0000000000002CA4
l0000000140002008	dq	0x0000000000002CBE
l0000000140002010	dq	0x0000000000002CD2
l0000000140002018	dq	0x0000000000002DDA
l0000000140002020	dq	0x0000000000002DC6
l0000000140002028	dq	0x0000000000002DB0
l0000000140002030	dq	0x0000000000002D96
l0000000140002038	dq	0x0000000000002D80
l0000000140002040	dq	0x0000000000002D6A
l0000000140002048	dq	0x0000000000002D50
l0000000140002050	dq	0x0000000000002D34
l0000000140002058	dq	0x0000000000002D20
l0000000140002060	dq	0x0000000000002D0C
l0000000140002068	dq	0x0000000000002CEE
l0000000140002070	dq	0x0000000000002C90
0000000140002078                         00 00 00 00 00 00 00 00         ........
l0000000140002080	dq	0x00000000000029D8
l0000000140002088	dq	0x00000000000029C0
0000000140002090 00 00 00 00 00 00 00 00                         ........       
l0000000140002098	dq	0x0000000000002B7A
00000001400020A0 00 00 00 00 00 00 00 00                         ........       
l00000001400020A8	dq	0x0000000000002B64
00000001400020B0 00 00 00 00 00 00 00 00                         ........       
l00000001400020B8	dq	0x0000000000002A5C
00000001400020C0 00 00 00 00 00 00 00 00                         ........       
l00000001400020C8	dq	0x0000000000002B22
l00000001400020D0	dq	0x0000000000002BB6
l00000001400020D8	dq	0x0000000000002BD2
l00000001400020E0	dq	0x0000000000002BE0
l00000001400020E8	dq	0x0000000000002A4C
l00000001400020F0	dq	0x0000000000002A3A
l00000001400020F8	dq	0x0000000000002B36
l0000000140002100	dq	0x0000000000002B14
l0000000140002108	dq	0x0000000000002B06
l0000000140002110	dq	0x0000000000002B2C
l0000000140002118	dq	0x0000000000002AF0
l0000000140002120	dq	0x0000000000002AE8
l0000000140002128	dq	0x0000000000002ADA
l0000000140002130	dq	0x0000000000002ACE
l0000000140002138	dq	0x0000000000002AAC
l0000000140002140	dq	0x0000000000002A8A
l0000000140002148	dq	0x0000000000002A70
l0000000140002150	dq	0x0000000000002B9A
0000000140002158                         00 00 00 00 00 00 00 00         ........
l0000000140002160	dq	0x0000000000002B8A
l0000000140002168	dq	0x0000000000002A20
l0000000140002170	dq	0x0000000000002A06
l0000000140002178	dq	0x00000000000029F4
l0000000140002180	dq	0x0000000000002AF8
0000000140002188                         00 00 00 00 00 00 00 00         ........
0000000140002190 D0 1D 00 40 01 00 00 00 10 1F 00 40 01 00 00 00 ...@.......@....
00000001400021A0 00 00 00 00 00 00 00 00 A0 12 00 40 01 00 00 00 ...........@....
00000001400021B0 00 00 00 00 00 00 00 00 00 00 00 00 00 00 00 00 ................
00000001400021C0 D4 11 00 40 01 00 00 00 90 12 00 40 01 00 00 00 ...@.......@....
00000001400021D0 00 00 00 00 00 00 00 00 00 00 00 00 00 00 00 00 ................
; ...
0000000140002200 40 30 00 40 01 00 00 00 E0 30 00 40 01 00 00 00 @0.@.....0.@....
0000000140002210 25 69 20 25 73 20 25 53 20 25 66 20 25 6C 66 20 %i %s %S %f %lf 
0000000140002220 25 63 20 25 43 00 00 00 25 69 20 25 33 30 73 20 %c %C...%i %30s 
0000000140002230 25 53 20 25 66 20 25 6C 66 20 25 63 20 25 43 00 %S %f %lf %c %C.
0000000140002240 48 00 65 00 6C 00 6C 00 6F 00 21 00 00 00 00 00 H.e.l.l.o.!.....
0000000140002250 68 65 6C 6C 6F 00 00 00 00 00 00 00 00 00 00 00 hello...........
0000000140002260 00 00 00 00 00 00 08 40 1F 85 EB 51 B8 1E 09 40 .......@...Q...@
0000000140002270 00 00 00 00 3A 1E BC 57 00 00 00 00 02 00 00 00 ....:..W........
0000000140002280 6E 00 00 00 74 23 00 00 74 17 00 00 00 00 00 00 n...t#..t.......
0000000140002290 3A 1E BC 57 00 00 00 00 0C 00 00 00 14 00 00 00 :..W............
00000001400022A0 E4 23 00 00 E4 17 00 00 00 00 00 00 3A 1E BC 57 .#..........:..W
00000001400022B0 00 00 00 00 0D 00 00 00 80 02 00 00 F8 23 00 00 .............#..
00000001400022C0 F8 17 00 00 00 00 00 00 3A 1E BC 57 00 00 00 00 ........:..W....
00000001400022D0 0E 00 00 00 00 00 00 00 00 00 00 00 00 00 00 00 ................
00000001400022E0 94 00 00 00 00 00 00 00 00 00 00 00 00 00 00 00 ................
00000001400022F0 00 00 00 00 00 00 00 00 00 00 00 00 00 00 00 00 ................
; ...
0000000140002330 00 00 00 00 00 00 00 00 00 30 00 40 01 00 00 00 .........0.@....
0000000140002340 00 00 00 00 00 00 00 00 00 00 00 00 00 00 00 00 ................
0000000140002350 90 21 00 40 01 00 00 00 98 21 00 40 01 00 00 00 .!.@.....!.@....
0000000140002360 00 00 00 00 00 00 00 00 00 00 00 00 00 00 00 00 ................
0000000140002370 00 01 00 00 52 53 44 53 82 9B AA CF 0E 32 38 49 ....RSDS.....28I
0000000140002380 80 B4 F6 58 31 8E 26 F4 03 00 00 00 44 3A 5C 64 ...X1.&.....D:\d
0000000140002390 65 76 5C 75 78 6D 61 6C 5C 72 65 6B 6F 5C 6D 61 ev\uxmal\reko\ma
00000001400023A0 73 74 65 72 5C 73 75 62 6A 65 63 74 73 5C 50 45 ster\subjects\PE
00000001400023B0 2D 78 38 36 2D 36 34 5C 76 61 72 61 72 67 73 5F -x86-64\varargs_
00000001400023C0 74 65 73 74 5C 78 36 34 5C 52 65 6C 65 61 73 65 test\x64\Release
00000001400023D0 5C 76 61 72 61 72 67 73 5F 74 65 73 74 2E 70 64 \varargs_test.pd
00000001400023E0 62 00 00 00 00 00 00 00 20 00 00 00 20 00 00 00 b....... ... ...
00000001400023F0 02 00 00 00 1E 00 00 00 47 43 54 4C 00 10 00 00 ........GCTL....
0000000140002400 00 0F 00 00 2E 74 65 78 74 24 6D 6E 00 00 00 00 .....text$mn....
0000000140002410 00 1F 00 00 12 00 00 00 2E 74 65 78 74 24 6D 6E .........text$mn
0000000140002420 24 30 30 00 12 1F 00 00 36 00 00 00 2E 74 65 78 $00.....6....tex
0000000140002430 74 24 78 00 00 20 00 00 90 01 00 00 2E 69 64 61 t$x.. .......ida
0000000140002440 74 61 24 35 00 00 00 00 90 21 00 00 10 00 00 00 ta$5.....!......
0000000140002450 2E 30 30 63 66 67 00 00 A0 21 00 00 08 00 00 00 .00cfg...!......
0000000140002460 2E 43 52 54 24 58 43 41 00 00 00 00 A8 21 00 00 .CRT$XCA.....!..
0000000140002470 08 00 00 00 2E 43 52 54 24 58 43 41 41 00 00 00 .....CRT$XCAA...
0000000140002480 B0 21 00 00 08 00 00 00 2E 43 52 54 24 58 43 5A .!.......CRT$XCZ
0000000140002490 00 00 00 00 B8 21 00 00 08 00 00 00 2E 43 52 54 .....!.......CRT
00000001400024A0 24 58 49 41 00 00 00 00 C0 21 00 00 08 00 00 00 $XIA.....!......
00000001400024B0 2E 43 52 54 24 58 49 41 41 00 00 00 C8 21 00 00 .CRT$XIAA....!..
00000001400024C0 08 00 00 00 2E 43 52 54 24 58 49 41 43 00 00 00 .....CRT$XIAC...
00000001400024D0 D0 21 00 00 08 00 00 00 2E 43 52 54 24 58 49 5A .!.......CRT$XIZ
00000001400024E0 00 00 00 00 D8 21 00 00 08 00 00 00 2E 43 52 54 .....!.......CRT
00000001400024F0 24 58 50 41 00 00 00 00 E0 21 00 00 08 00 00 00 $XPA.....!......
0000000140002500 2E 43 52 54 24 58 50 5A 00 00 00 00 E8 21 00 00 .CRT$XPZ.....!..
0000000140002510 08 00 00 00 2E 43 52 54 24 58 54 41 00 00 00 00 .....CRT$XTA....
0000000140002520 F0 21 00 00 10 00 00 00 2E 43 52 54 24 58 54 5A .!.......CRT$XTZ
0000000140002530 00 00 00 00 00 22 00 00 74 01 00 00 2E 72 64 61 ....."..t....rda
0000000140002540 74 61 00 00 74 23 00 00 04 03 00 00 2E 72 64 61 ta..t#.......rda
0000000140002550 74 61 24 7A 7A 7A 64 62 67 00 00 00 78 26 00 00 ta$zzzdbg...x&..
0000000140002560 08 00 00 00 2E 72 74 63 24 49 41 41 00 00 00 00 .....rtc$IAA....
0000000140002570 80 26 00 00 08 00 00 00 2E 72 74 63 24 49 5A 5A .&.......rtc$IZZ
0000000140002580 00 00 00 00 88 26 00 00 08 00 00 00 2E 72 74 63 .....&.......rtc
0000000140002590 24 54 41 41 00 00 00 00 90 26 00 00 08 00 00 00 $TAA.....&......
00000001400025A0 2E 72 74 63 24 54 5A 5A 00 00 00 00 98 26 00 00 .rtc$TZZ.....&..
00000001400025B0 F4 00 00 00 2E 78 64 61 74 61 00 00 8C 27 00 00 .....xdata...'..
00000001400025C0 8C 00 00 00 2E 69 64 61 74 61 24 32 00 00 00 00 .....idata$2....
00000001400025D0 18 28 00 00 18 00 00 00 2E 69 64 61 74 61 24 33 .(.......idata$3
00000001400025E0 00 00 00 00 30 28 00 00 90 01 00 00 2E 69 64 61 ....0(.......ida
00000001400025F0 74 61 24 34 00 00 00 00 C0 29 00 00 3C 04 00 00 ta$4.....)..<...
0000000140002600 2E 69 64 61 74 61 24 36 00 00 00 00 00 30 00 00 .idata$6.....0..
0000000140002610 40 00 00 00 2E 64 61 74 61 00 00 00 40 30 00 00 @....data...@0..
0000000140002620 00 06 00 00 2E 62 73 73 00 00 00 00 00 40 00 00 .....bss.....@..
0000000140002630 8C 01 00 00 2E 70 64 61 74 61 00 00 00 50 00 00 .....pdata...P..
0000000140002640 1C 00 00 00 2E 67 66 69 64 73 24 79 00 00 00 00 .....gfids$y....
0000000140002650 00 60 00 00 60 00 00 00 2E 72 73 72 63 24 30 31 .`..`....rsrc$01
0000000140002660 00 00 00 00 60 60 00 00 80 01 00 00 2E 72 73 72 ....``.......rsr
0000000140002670 63 24 30 32 00 00 00 00 00 00 00 00 00 00 00 00 c$02............
0000000140002680 00 00 00 00 00 00 00 00 00 00 00 00 00 00 00 00 ................
0000000140002690 00 00 00 00 00 00 00 00 19 19 02 00 07 01 19 00 ................
00000001400026A0 7C 1E 00 00 B8 00 00 00 01 1B 04 00 1B 52 17 70 |............R.p
00000001400026B0 16 60 15 30 00 00 00 00 01 00 00 00 09 0F 06 00 .`.0............
00000001400026C0 0F 64 09 00 0F 34 08 00 0F 52 0B 70 E0 1D 00 00 .d...4...R.p....
00000001400026D0 01 00 00 00 EC 12 00 00 02 14 00 00 12 1F 00 00 ................
00000001400026E0 02 14 00 00 01 06 02 00 06 32 02 50 01 09 01 00 .........2.P....
00000001400026F0 09 62 00 00 01 08 04 00 08 72 04 70 03 60 02 30 .b.......r.p.`.0
0000000140002700 09 04 01 00 04 22 00 00 E0 1D 00 00 01 00 00 00 ....."..........
0000000140002710 1F 17 00 00 AA 17 00 00 30 1F 00 00 AA 17 00 00 ........0.......
0000000140002720 01 02 01 00 02 50 00 00 01 06 02 00 06 32 02 30 .....P.......2.0
0000000140002730 01 0D 04 00 0D 34 0A 00 0D 72 06 50 01 0D 04 00 .....4...r.P....
0000000140002740 0D 34 09 00 0D 32 06 50 01 15 05 00 15 34 BA 00 .4...2.P.....4..
0000000140002750 15 01 B8 00 06 50 00 00 01 0F 06 00 0F 64 07 00 .....P.......d..
0000000140002760 0F 34 06 00 0F 32 0B 70 01 12 06 00 12 74 08 00 .4...2.p.....t..
0000000140002770 12 34 07 00 12 32 0B 50 01 00 00 00 01 02 01 00 .4...2.P........
0000000140002780 02 30 00 00 01 04 01 00 04 42 00 00 B0 28 00 00 .0.......B...(..
0000000140002790 00 00 00 00 00 00 00 00 E2 29 00 00 80 20 00 00 .........)... ..
00000001400027A0 90 29 00 00 00 00 00 00 00 00 00 00 EC 2B 00 00 .)...........+..
00000001400027B0 60 21 00 00 F8 28 00 00 00 00 00 00 00 00 00 00 `!...(..........
00000001400027C0 0C 2C 00 00 C8 20 00 00 E8 28 00 00 00 00 00 00 .,... ...(......
00000001400027D0 00 00 00 00 2E 2C 00 00 B8 20 00 00 D8 28 00 00 .....,... ...(..
00000001400027E0 00 00 00 00 00 00 00 00 4E 2C 00 00 A8 20 00 00 ........N,... ..
00000001400027F0 C8 28 00 00 00 00 00 00 00 00 00 00 70 2C 00 00 .(..........p,..
0000000140002800 98 20 00 00 30 28 00 00 00 00 00 00 00 00 00 00 . ..0(..........
0000000140002810 EE 2D 00 00 00 20 00 00 00 00 00 00 00 00 00 00 .-... ..........
0000000140002820 00 00 00 00 00 00 00 00 00 00 00 00 00 00 00 00 ................
l0000000140002830	dq	0x0000000000002CA4
l0000000140002838	dq	0x0000000000002CBE
l0000000140002840	dq	0x0000000000002CD2
l0000000140002848	dq	0x0000000000002DDA
l0000000140002850	dq	0x0000000000002DC6
l0000000140002858	dq	0x0000000000002DB0
l0000000140002860	dq	0x0000000000002D96
l0000000140002868	dq	0x0000000000002D80
l0000000140002870	dq	0x0000000000002D6A
l0000000140002878	dq	0x0000000000002D50
l0000000140002880	dq	0x0000000000002D34
l0000000140002888	dq	0x0000000000002D20
l0000000140002890	dq	0x0000000000002D0C
l0000000140002898	dq	0x0000000000002CEE
l00000001400028A0	dq	0x0000000000002C90
00000001400028A8                         00 00 00 00 00 00 00 00         ........
l00000001400028B0	dq	0x00000000000029D8
l00000001400028B8	dq	0x00000000000029C0
00000001400028C0 00 00 00 00 00 00 00 00                         ........       
l00000001400028C8	dq	0x0000000000002B7A
00000001400028D0 00 00 00 00 00 00 00 00                         ........       
l00000001400028D8	dq	0x0000000000002B64
00000001400028E0 00 00 00 00 00 00 00 00                         ........       
l00000001400028E8	dq	0x0000000000002A5C
00000001400028F0 00 00 00 00 00 00 00 00                         ........       
l00000001400028F8	dq	0x0000000000002B22
l0000000140002900	dq	0x0000000000002BB6
l0000000140002908	dq	0x0000000000002BD2
l0000000140002910	dq	0x0000000000002BE0
l0000000140002918	dq	0x0000000000002A4C
l0000000140002920	dq	0x0000000000002A3A
l0000000140002928	dq	0x0000000000002B36
l0000000140002930	dq	0x0000000000002B14
l0000000140002938	dq	0x0000000000002B06
l0000000140002940	dq	0x0000000000002B2C
l0000000140002948	dq	0x0000000000002AF0
l0000000140002950	dq	0x0000000000002AE8
l0000000140002958	dq	0x0000000000002ADA
l0000000140002960	dq	0x0000000000002ACE
l0000000140002968	dq	0x0000000000002AAC
l0000000140002970	dq	0x0000000000002A8A
l0000000140002978	dq	0x0000000000002A70
l0000000140002980	dq	0x0000000000002B9A
0000000140002988                         00 00 00 00 00 00 00 00         ........
l0000000140002990	dq	0x0000000000002B8A
l0000000140002998	dq	0x0000000000002A20
l00000001400029A0	dq	0x0000000000002A06
l00000001400029A8	dq	0x00000000000029F4
l00000001400029B0	dq	0x0000000000002AF8
00000001400029B8                         00 00 00 00 00 00 00 00         ........
00000001400029C0 08 00 5F 5F 43 5F 73 70 65 63 69 66 69 63 5F 68 ..__C_specific_h
00000001400029D0 61 6E 64 6C 65 72 00 00 3E 00 6D 65 6D 73 65 74 andler..>.memset
00000001400029E0 00 00 56 43 52 55 4E 54 49 4D 45 31 34 30 2E 64 ..VCRUNTIME140.d
00000001400029F0 6C 6C 00 00 00 00 5F 5F 61 63 72 74 5F 69 6F 62 ll....__acrt_iob
0000000140002A00 5F 66 75 6E 63 00 03 00 5F 5F 73 74 64 69 6F 5F _func...__stdio_
0000000140002A10 63 6F 6D 6D 6F 6E 5F 76 66 70 72 69 6E 74 66 00 common_vfprintf.
0000000140002A20 06 00 5F 5F 73 74 64 69 6F 5F 63 6F 6D 6D 6F 6E ..__stdio_common
0000000140002A30 5F 76 66 73 63 61 6E 66 00 00 40 00 5F 73 65 68 _vfscanf..@._seh
0000000140002A40 5F 66 69 6C 74 65 72 5F 65 78 65 00 42 00 5F 73 _filter_exe.B._s
0000000140002A50 65 74 5F 61 70 70 5F 74 79 70 65 00 09 00 5F 5F et_app_type...__
0000000140002A60 73 65 74 75 73 65 72 6D 61 74 68 65 72 72 00 00 setusermatherr..
0000000140002A70 18 00 5F 63 6F 6E 66 69 67 75 72 65 5F 6E 61 72 .._configure_nar
0000000140002A80 72 6F 77 5F 61 72 67 76 00 00 33 00 5F 69 6E 69 row_argv..3._ini
0000000140002A90 74 69 61 6C 69 7A 65 5F 6E 61 72 72 6F 77 5F 65 tialize_narrow_e
0000000140002AA0 6E 76 69 72 6F 6E 6D 65 6E 74 00 00 28 00 5F 67 nvironment..(._g
0000000140002AB0 65 74 5F 69 6E 69 74 69 61 6C 5F 6E 61 72 72 6F et_initial_narro
0000000140002AC0 77 5F 65 6E 76 69 72 6F 6E 6D 65 6E 74 00 36 00 w_environment.6.
0000000140002AD0 5F 69 6E 69 74 74 65 72 6D 00 37 00 5F 69 6E 69 _initterm.7._ini
0000000140002AE0 74 74 65 72 6D 5F 65 00 55 00 65 78 69 74 00 00 tterm_e.U.exit..
0000000140002AF0 23 00 5F 65 78 69 74 00 54 00 5F 73 65 74 5F 66 #._exit.T._set_f
0000000140002B00 6D 6F 64 65 00 00 04 00 5F 5F 70 5F 5F 5F 61 72 mode....__p___ar
0000000140002B10 67 63 00 00 05 00 5F 5F 70 5F 5F 5F 61 72 67 76 gc....__p___argv
0000000140002B20 00 00 16 00 5F 63 65 78 69 74 00 00 15 00 5F 63 ...._cexit...._c
0000000140002B30 5F 65 78 69 74 00 3D 00 5F 72 65 67 69 73 74 65 _exit.=._registe
0000000140002B40 72 5F 74 68 72 65 61 64 5F 6C 6F 63 61 6C 5F 65 r_thread_local_e
0000000140002B50 78 65 5F 61 74 65 78 69 74 5F 63 61 6C 6C 62 61 xe_atexit_callba
0000000140002B60 63 6B 00 00 08 00 5F 63 6F 6E 66 69 67 74 68 72 ck...._configthr
0000000140002B70 65 61 64 6C 6F 63 61 6C 65 00 16 00 5F 73 65 74 eadlocale..._set
0000000140002B80 5F 6E 65 77 5F 6D 6F 64 65 00 01 00 5F 5F 70 5F _new_mode...__p_
0000000140002B90 5F 63 6F 6D 6D 6F 64 65 00 00 34 00 5F 69 6E 69 _commode..4._ini
0000000140002BA0 74 69 61 6C 69 7A 65 5F 6F 6E 65 78 69 74 5F 74 tialize_onexit_t
0000000140002BB0 61 62 6C 65 00 00 3C 00 5F 72 65 67 69 73 74 65 able..<._registe
0000000140002BC0 72 5F 6F 6E 65 78 69 74 5F 66 75 6E 63 74 69 6F r_onexit_functio
0000000140002BD0 6E 00 1E 00 5F 63 72 74 5F 61 74 65 78 69 74 00 n..._crt_atexit.
0000000140002BE0 67 00 74 65 72 6D 69 6E 61 74 65 00 61 70 69 2D g.terminate.api-
0000000140002BF0 6D 73 2D 77 69 6E 2D 63 72 74 2D 73 74 64 69 6F ms-win-crt-stdio
0000000140002C00 2D 6C 31 2D 31 2D 30 2E 64 6C 6C 00 61 70 69 2D -l1-1-0.dll.api-
0000000140002C10 6D 73 2D 77 69 6E 2D 63 72 74 2D 72 75 6E 74 69 ms-win-crt-runti
0000000140002C20 6D 65 2D 6C 31 2D 31 2D 30 2E 64 6C 6C 00 61 70 me-l1-1-0.dll.ap
0000000140002C30 69 2D 6D 73 2D 77 69 6E 2D 63 72 74 2D 6D 61 74 i-ms-win-crt-mat
0000000140002C40 68 2D 6C 31 2D 31 2D 30 2E 64 6C 6C 00 00 61 70 h-l1-1-0.dll..ap
0000000140002C50 69 2D 6D 73 2D 77 69 6E 2D 63 72 74 2D 6C 6F 63 i-ms-win-crt-loc
0000000140002C60 61 6C 65 2D 6C 31 2D 31 2D 30 2E 64 6C 6C 00 00 ale-l1-1-0.dll..
0000000140002C70 61 70 69 2D 6D 73 2D 77 69 6E 2D 63 72 74 2D 68 api-ms-win-crt-h
0000000140002C80 65 61 70 2D 6C 31 2D 31 2D 30 2E 64 6C 6C 00 00 eap-l1-1-0.dll..
0000000140002C90 AE 04 52 74 6C 43 61 70 74 75 72 65 43 6F 6E 74 ..RtlCaptureCont
0000000140002CA0 65 78 74 00 B5 04 52 74 6C 4C 6F 6F 6B 75 70 46 ext...RtlLookupF
0000000140002CB0 75 6E 63 74 69 6F 6E 45 6E 74 72 79 00 00 BC 04 unctionEntry....
0000000140002CC0 52 74 6C 56 69 72 74 75 61 6C 55 6E 77 69 6E 64 RtlVirtualUnwind
0000000140002CD0 00 00 92 05 55 6E 68 61 6E 64 6C 65 64 45 78 63 ....UnhandledExc
0000000140002CE0 65 70 74 69 6F 6E 46 69 6C 74 65 72 00 00 52 05 eptionFilter..R.
0000000140002CF0 53 65 74 55 6E 68 61 6E 64 6C 65 64 45 78 63 65 SetUnhandledExce
0000000140002D00 70 74 69 6F 6E 46 69 6C 74 65 72 00 0F 02 47 65 ptionFilter...Ge
0000000140002D10 74 43 75 72 72 65 6E 74 50 72 6F 63 65 73 73 00 tCurrentProcess.
0000000140002D20 70 05 54 65 72 6D 69 6E 61 74 65 50 72 6F 63 65 p.TerminateProce
0000000140002D30 73 73 00 00 70 03 49 73 50 72 6F 63 65 73 73 6F ss..p.IsProcesso
0000000140002D40 72 46 65 61 74 75 72 65 50 72 65 73 65 6E 74 00 rFeaturePresent.
0000000140002D50 30 04 51 75 65 72 79 50 65 72 66 6F 72 6D 61 6E 0.QueryPerforman
0000000140002D60 63 65 43 6F 75 6E 74 65 72 00 10 02 47 65 74 43 ceCounter...GetC
0000000140002D70 75 72 72 65 6E 74 50 72 6F 63 65 73 73 49 64 00 urrentProcessId.
0000000140002D80 14 02 47 65 74 43 75 72 72 65 6E 74 54 68 72 65 ..GetCurrentThre
0000000140002D90 61 64 49 64 00 00 DD 02 47 65 74 53 79 73 74 65 adId....GetSyste
0000000140002DA0 6D 54 69 6D 65 41 73 46 69 6C 65 54 69 6D 65 00 mTimeAsFileTime.
0000000140002DB0 54 03 49 6E 69 74 69 61 6C 69 7A 65 53 4C 69 73 T.InitializeSLis
0000000140002DC0 74 48 65 61 64 00 6A 03 49 73 44 65 62 75 67 67 tHead.j.IsDebugg
0000000140002DD0 65 72 50 72 65 73 65 6E 74 00 6D 02 47 65 74 4D erPresent.m.GetM
0000000140002DE0 6F 64 75 6C 65 48 61 6E 64 6C 65 57 00 00 4B 45 oduleHandleW..KE
0000000140002DF0 52 4E 45 4C 33 32 2E 64 6C 6C 00 00             RNEL32.dll..   
;;; Segment .data (0000000140003000)
0000000140003000 32 A2 DF 2D 99 2B 00 00 CD 5D 20 D2 66 D4 FF FF 2..-.+...] .f...
0000000140003010 FF FF FF FF 01 00 00 00 01 00 00 00 02 00 00 00 ................
0000000140003020 2F 20 00 00 00 00 00 00 00 00 00 00 00 00 00 00 / ..............
0000000140003030 01 00 00 00 75 98 00 00 00 00 00 00 00 00 00 00 ....u...........
0000000140003040 00 00 00 00 00 00 00 00 00 00 00 00 00 00 00 00 ................
; ...
;;; Segment .pdata (0000000140004000)
0000000140004000 00 10 00 00 B1 10 00 00 98 26 00 00 D0 10 00 00 .........&......
0000000140004010 22 11 00 00 A8 26 00 00 40 11 00 00 95 11 00 00 "....&..@.......
0000000140004020 A8 26 00 00 B0 11 00 00 D1 11 00 00 B8 26 00 00 .&...........&..
0000000140004030 D4 11 00 00 8F 12 00 00 28 27 00 00 90 12 00 00 ........('......
0000000140004040 A0 12 00 00 84 27 00 00 A0 12 00 00 B9 12 00 00 .....'..........
0000000140004050 84 27 00 00 BC 12 00 00 33 14 00 00 BC 26 00 00 .'......3....&..
0000000140004060 34 14 00 00 46 14 00 00 84 27 00 00 48 14 00 00 4...F....'..H...
0000000140004070 7C 14 00 00 28 27 00 00 7C 14 00 00 4D 15 00 00 |...('..|...M...
0000000140004080 EC 26 00 00 50 15 00 00 C1 15 00 00 F4 26 00 00 .&..P........&..
0000000140004090 C4 15 00 00 FD 15 00 00 84 27 00 00 00 16 00 00 .........'......
00000001400040A0 49 16 00 00 28 27 00 00 4C 16 00 00 15 17 00 00 I...('..L.......
00000001400040B0 30 27 00 00 18 17 00 00 B1 17 00 00 00 27 00 00 0'...........'..
00000001400040C0 B4 17 00 00 D8 17 00 00 28 27 00 00 D8 17 00 00 ........('......
00000001400040D0 03 18 00 00 28 27 00 00 04 18 00 00 53 18 00 00 ....('......S...
00000001400040E0 28 27 00 00 54 18 00 00 6B 18 00 00 84 27 00 00 ('..T...k....'..
00000001400040F0 6C 18 00 00 18 19 00 00 3C 27 00 00 3C 19 00 00 l.......<'..<...
0000000140004100 57 19 00 00 84 27 00 00 74 19 00 00 B9 1A 00 00 W....'..t.......
0000000140004110 48 27 00 00 C0 1A 00 00 14 1B 00 00 84 27 00 00 H'...........'..
0000000140004120 24 1B 00 00 5C 1B 00 00 84 27 00 00 5C 1B 00 00 $...\....'..\...
0000000140004130 A6 1B 00 00 58 27 00 00 A8 1B 00 00 F2 1B 00 00 ....X'..........
0000000140004140 58 27 00 00 FC 1B 00 00 C2 1D 00 00 68 27 00 00 X'..........h'..
0000000140004150 7C 1E 00 00 99 1E 00 00 84 27 00 00 9C 1E 00 00 |........'......
0000000140004160 F5 1E 00 00 7C 27 00 00 10 1F 00 00 12 1F 00 00 ....|'..........
0000000140004170 78 27 00 00 12 1F 00 00 30 1F 00 00 E4 26 00 00 x'......0....&..
0000000140004180 30 1F 00 00 48 1F 00 00 20 27 00 00             0...H... '..   
;;; Segment .gfids (0000000140005000)
0000000140005000 0A 00 00 00 0D 00 00 00 10 00 00 00 45 00 00 00 ............E...
0000000140005010 72 00 00 00 37 00 00 00 0B 00 00 00             r...7.......   
;;; Segment .rsrc (0000000140006000)
0000000140006000 00 00 00 00 00 00 00 00 00 00 00 00 00 00 01 00 ................
0000000140006010 18 00 00 00 18 00 00 80 00 00 00 00 00 00 00 00 ................
0000000140006020 00 00 00 00 00 00 01 00 01 00 00 00 30 00 00 80 ............0...
0000000140006030 00 00 00 00 00 00 00 00 00 00 00 00 00 00 01 00 ................
0000000140006040 09 04 00 00 48 00 00 00 60 60 00 00 7D 01 00 00 ....H...``..}...
0000000140006050 00 00 00 00 00 00 00 00 00 00 00 00 00 00 00 00 ................
0000000140006060 3C 3F 78 6D 6C 20 76 65 72 73 69 6F 6E 3D 27 31 <?xml version='1
0000000140006070 2E 30 27 20 65 6E 63 6F 64 69 6E 67 3D 27 55 54 .0' encoding='UT
0000000140006080 46 2D 38 27 20 73 74 61 6E 64 61 6C 6F 6E 65 3D F-8' standalone=
0000000140006090 27 79 65 73 27 3F 3E 0D 0A 3C 61 73 73 65 6D 62 'yes'?>..<assemb
00000001400060A0 6C 79 20 78 6D 6C 6E 73 3D 27 75 72 6E 3A 73 63 ly xmlns='urn:sc
00000001400060B0 68 65 6D 61 73 2D 6D 69 63 72 6F 73 6F 66 74 2D hemas-microsoft-
00000001400060C0 63 6F 6D 3A 61 73 6D 2E 76 31 27 20 6D 61 6E 69 com:asm.v1' mani
00000001400060D0 66 65 73 74 56 65 72 73 69 6F 6E 3D 27 31 2E 30 festVersion='1.0
00000001400060E0 27 3E 0D 0A 20 20 3C 74 72 75 73 74 49 6E 66 6F '>..  <trustInfo
00000001400060F0 20 78 6D 6C 6E 73 3D 22 75 72 6E 3A 73 63 68 65  xmlns="urn:sche
0000000140006100 6D 61 73 2D 6D 69 63 72 6F 73 6F 66 74 2D 63 6F mas-microsoft-co
0000000140006110 6D 3A 61 73 6D 2E 76 33 22 3E 0D 0A 20 20 20 20 m:asm.v3">..    
0000000140006120 3C 73 65 63 75 72 69 74 79 3E 0D 0A 20 20 20 20 <security>..    
0000000140006130 20 20 3C 72 65 71 75 65 73 74 65 64 50 72 69 76   <requestedPriv
0000000140006140 69 6C 65 67 65 73 3E 0D 0A 20 20 20 20 20 20 20 ileges>..       
0000000140006150 20 3C 72 65 71 75 65 73 74 65 64 45 78 65 63 75  <requestedExecu
0000000140006160 74 69 6F 6E 4C 65 76 65 6C 20 6C 65 76 65 6C 3D tionLevel level=
0000000140006170 27 61 73 49 6E 76 6F 6B 65 72 27 20 75 69 41 63 'asInvoker' uiAc
0000000140006180 63 65 73 73 3D 27 66 61 6C 73 65 27 20 2F 3E 0D cess='false' />.
0000000140006190 0A 20 20 20 20 20 20 3C 2F 72 65 71 75 65 73 74 .      </request
00000001400061A0 65 64 50 72 69 76 69 6C 65 67 65 73 3E 0D 0A 20 edPrivileges>.. 
00000001400061B0 20 20 20 3C 2F 73 65 63 75 72 69 74 79 3E 0D 0A    </security>..
00000001400061C0 20 20 3C 2F 74 72 75 73 74 49 6E 66 6F 3E 0D 0A   </trustInfo>..
00000001400061D0 3C 2F 61 73 73 65 6D 62 6C 79 3E 0D 0A 00 00 00 </assembly>.....
;;; Segment .reloc (0000000140007000)
0000000140007000 00 20 00 00 1C 00 00 00 90 A1 98 A1 A8 A1 C0 A1 . ..............
0000000140007010 C8 A1 00 A2 08 A2 38 A3 50 A3 58 A3             ......8.P.X.   
