;;; Segment __TEXT,__stub_helper (0000000100004F6C)
0000000100004F6C                                     68 00 00 00             h...
0000000100004F70 00 E9 DA 02 00 00                               ......          
0000000100004F76                   68 0F 00 00 00 E9 D0 02 00 00       h.........
0000000100004F80 68 21 00 00 00 E9 C6 02 00 00                   h!........      
0000000100004F8A                               68 37 00 00 00 E9           h7....
0000000100004F90 BC 02 00 00                                     ....            
0000000100004F94             68 4F 00 00 00 E9 B2 02 00 00           hO........  
0000000100004F9E                                           68 61               ha
0000000100004FA0 00 00 00 E9 A8 02 00 00                         ........        
0000000100004FA8                         68 72 00 00 00 E9 9E 02         hr......
0000000100004FB0 00 00                                           ..              
0000000100004FB2       68 88 00 00 00 E9 94 02 00 00               h.........    
0000000100004FBC                                     68 A0 00 00             h...
0000000100004FC0 00 E9 8A 02 00 00                               ......          
0000000100004FC6                   68 BB 00 00 00 E9 80 02 00 00       h.........
0000000100004FD0 68 D3 00 00 00 E9 76 02 00 00                   h.....v...      
0000000100004FDA                               68 EB 00 00 00 E9           h.....
0000000100004FE0 6C 02 00 00                                     l...            
0000000100004FE4             68 03 01 00 00 E9 62 02 00 00           h.....b...  
0000000100004FEE                                           68 1D               h.
0000000100004FF0 01 00 00 E9 58 02 00 00                         ....X...        
0000000100004FF8                         68 36 01 00 00 E9 4E 02         h6....N.
0000000100005000 00 00                                           ..              
0000000100005002       68 43 01 00 00 E9 44 02 00 00               hC....D...    
000000010000500C                                     68 57 01 00             hW..
0000000100005010 00 E9 3A 02 00 00                               ..:...          
0000000100005016                   68 63 01 00 00 E9 30 02 00 00       hc....0...
0000000100005020 68 70 01 00 00 E9 26 02 00 00                   hp....&...      
000000010000502A                               68 84 01 00 00 E9           h.....
0000000100005030 1C 02 00 00                                     ....            
0000000100005034             68 94 01 00 00 E9 12 02 00 00           h.........  
000000010000503E                                           68 A2               h.
0000000100005040 01 00 00 E9 08 02 00 00                         ........        
0000000100005048                         68 AF 01 00 00 E9 FE 01         h.......
0000000100005050 00 00                                           ..              
0000000100005052       68 CC 01 00 00 E9 F4 01 00 00               h.........    
000000010000505C                                     68 E6 01 00             h...
0000000100005060 00 E9 EA 01 00 00                               ......          
0000000100005066                   68 FF 01 00 00 E9 E0 01 00 00       h.........
0000000100005070 68 18 02 00 00 E9 D6 01 00 00                   h.........      
000000010000507A                               68 30 02 00 00 E9           h0....
0000000100005080 CC 01 00 00                                     ....            
0000000100005084             68 41 02 00 00 E9 C2 01 00 00           hA........  
000000010000508E                                           68 50               hP
0000000100005090 02 00 00 E9 B8 01 00 00                         ........        
0000000100005098                         68 61 02 00 00 E9 AE 01         ha......
00000001000050A0 00 00                                           ..              
00000001000050A2       68 70 02 00 00 E9 A4 01 00 00               hp........    
00000001000050AC                                     68 7F 02 00             h...
00000001000050B0 00 E9 9A 01 00 00                               ......          
00000001000050B6                   68 90 02 00 00 E9 90 01 00 00       h.........
00000001000050C0 68 9F 02 00 00 E9 86 01 00 00                   h.........      
00000001000050CA                               68 B0 02 00 00 E9           h.....
00000001000050D0 7C 01 00 00                                     |...            
00000001000050D4             68 C7 02 00 00 E9 72 01 00 00           h.....r...  
00000001000050DE                                           68 DF               h.
00000001000050E0 02 00 00 E9 68 01 00 00                         ....h...        
00000001000050E8                         68 ED 02 00 00 E9 5E 01         h.....^.
00000001000050F0 00 00                                           ..              
00000001000050F2       68 FC 02 00 00 E9 54 01 00 00               h.....T...    
00000001000050FC                                     68 09 03 00             h...
0000000100005100 00 E9 4A 01 00 00                               ..J...          
0000000100005106                   68 1B 03 00 00 E9 40 01 00 00       h.....@...
0000000100005110 68 2D 03 00 00 E9 36 01 00 00                   h-....6...      
000000010000511A                               68 3C 03 00 00 E9           h<....
0000000100005120 2C 01 00 00                                     ,...            
0000000100005124             68 53 03 00 00 E9 22 01 00 00           hS...."...  
000000010000512E                                           68 6E               hn
0000000100005130 03 00 00 E9 18 01 00 00                         ........        
0000000100005138                         68 7E 03 00 00 E9 0E 01         h~......
0000000100005140 00 00                                           ..              
0000000100005142       68 8D 03 00 00 E9 04 01 00 00               h.........    
000000010000514C                                     68 A1 03 00             h...
0000000100005150 00 E9 FA 00 00 00                               ......          
0000000100005156                   68 B0 03 00 00 E9 F0 00 00 00       h.........
0000000100005160 68 C0 03 00 00 E9 E6 00 00 00                   h.........      
000000010000516A                               68 D1 03 00 00 E9           h.....
0000000100005170 DC 00 00 00                                     ....            
0000000100005174             68 E1 03 00 00 E9 D2 00 00 00           h.........  
000000010000517E                                           68 F0               h.
0000000100005180 03 00 00 E9 C8 00 00 00                         ........        
0000000100005188                         68 02 04 00 00 E9 BE 00         h.......
0000000100005190 00 00                                           ..              
0000000100005192       68 11 04 00 00 E9 B4 00 00 00               h.........    
000000010000519C                                     68 22 04 00             h"..
00000001000051A0 00 E9 AA 00 00 00                               ......          
00000001000051A6                   68 31 04 00 00 E9 A0 00 00 00       h1........
00000001000051B0 68 41 04 00 00 E9 96 00 00 00                   hA........      
00000001000051BA                               68 50 04 00 00 E9           hP....
00000001000051C0 8C 00 00 00                                     ....            
00000001000051C4             68 5F 04 00 00 E9 82 00 00 00           h_........  
00000001000051CE                                           68 70               hp
00000001000051D0 04 00 00 E9 78 00 00 00                         ....x...        
00000001000051D8                         68 81 04 00 00 E9 6E 00         h.....n.
00000001000051E0 00 00                                           ..              
00000001000051E2       68 90 04 00 00 E9 64 00 00 00               h.....d...    
00000001000051EC                                     68 A0 04 00             h...
00000001000051F0 00 E9 5A 00 00 00                               ..Z...          
00000001000051F6                   68 B0 04 00 00 E9 50 00 00 00       h.....P...
0000000100005200 68 C0 04 00 00 E9 46 00 00 00                   h.....F...      
000000010000520A                               68 CE 04 00 00 E9           h.....
0000000100005210 3C 00 00 00                                     <...            
0000000100005214             68 DB 04 00 00 E9 32 00 00 00           h.....2...  
000000010000521E                                           68 E9               h.
0000000100005220 04 00 00 E9 28 00 00 00                         ....(...        
0000000100005228                         68 FF 04 00 00 E9 1E 00         h.......
0000000100005230 00 00                                           ..              
0000000100005232       68 0C 05 00 00 E9 14 00 00 00               h.........    
000000010000523C                                     68 1A 05 00             h...
0000000100005240 00 E9 0A 00 00 00                               ......          
0000000100005246                   68 2A 05 00 00 E9 00 00 00 00       h*........
0000000100005250 4C 8D 1D 01 0E 00 00 41 53 FF 25 F1 0D 00 00 90 L......AS.%.....
